{
  "_format": "hh-sol-artifact-1",
  "contractName": "Staking",
  "sourceName": "contracts/Staking.sol",
  "abi": [
    {
      "inputs": [],
      "stateMutability": "payable",
      "type": "constructor"
    },
    {
      "inputs": [
        {
          "internalType": "uint256",
          "name": "positionId",
          "type": "uint256"
        },
        {
          "internalType": "uint256",
          "name": "newUnlockDate",
          "type": "uint256"
        }
      ],
      "name": "changeUnlockDate",
      "outputs": [],
      "stateMutability": "nonpayable",
      "type": "function"
    },
    {
      "inputs": [
        {
          "internalType": "uint256",
          "name": "positionId",
          "type": "uint256"
        }
      ],
      "name": "closePosition",
      "outputs": [
        {
          "internalType": "bool",
          "name": "",
          "type": "bool"
        },
        {
          "internalType": "bytes",
          "name": "",
          "type": "bytes"
        }
      ],
      "stateMutability": "nonpayable",
      "type": "function"
    },
    {
      "inputs": [],
      "name": "currentPositionId",
      "outputs": [
        {
          "internalType": "uint256",
          "name": "",
          "type": "uint256"
        }
      ],
      "stateMutability": "view",
      "type": "function"
    },
    {
      "inputs": [
        {
          "internalType": "uint256",
          "name": "numDays",
          "type": "uint256"
        }
      ],
      "name": "getInterestRate",
      "outputs": [
        {
          "internalType": "uint256",
          "name": "",
          "type": "uint256"
        }
      ],
      "stateMutability": "view",
      "type": "function"
    },
    {
      "inputs": [],
      "name": "getLockPeriods",
      "outputs": [
        {
          "internalType": "uint256[]",
          "name": "",
          "type": "uint256[]"
        }
      ],
      "stateMutability": "view",
      "type": "function"
    },
    {
      "inputs": [
        {
          "internalType": "uint256",
          "name": "positionId",
          "type": "uint256"
        }
      ],
      "name": "getPositionById",
      "outputs": [
        {
          "components": [
            {
              "internalType": "uint256",
              "name": "PositionId",
              "type": "uint256"
            },
            {
              "internalType": "address",
              "name": "walletAddress",
              "type": "address"
            },
            {
              "internalType": "uint256",
              "name": "createdDate",
              "type": "uint256"
            },
            {
              "internalType": "uint256",
              "name": "unlockDate",
              "type": "uint256"
            },
            {
              "internalType": "uint256",
              "name": "percentIntrest",
              "type": "uint256"
            },
            {
              "internalType": "uint256",
              "name": "weiStaked",
              "type": "uint256"
            },
            {
              "internalType": "uint256",
              "name": "weiInterest",
              "type": "uint256"
            },
            {
              "internalType": "bool",
              "name": "open",
              "type": "bool"
            }
          ],
          "internalType": "struct Staking.Position",
          "name": "",
          "type": "tuple"
        }
      ],
      "stateMutability": "view",
      "type": "function"
    },
    {
      "inputs": [
        {
          "internalType": "address",
          "name": "walletAddress",
          "type": "address"
        }
      ],
      "name": "getPositionIdsForAddress",
      "outputs": [
        {
          "internalType": "uint256[]",
          "name": "",
          "type": "uint256[]"
        }
      ],
      "stateMutability": "view",
      "type": "function"
    },
    {
      "inputs": [
        {
          "internalType": "uint256",
          "name": "",
          "type": "uint256"
        }
      ],
      "name": "lockPeriods",
      "outputs": [
        {
          "internalType": "uint256",
          "name": "",
          "type": "uint256"
        }
      ],
      "stateMutability": "view",
      "type": "function"
    },
    {
      "inputs": [
        {
          "internalType": "uint256",
          "name": "numDays",
          "type": "uint256"
        },
        {
          "internalType": "uint256",
          "name": "basisPoints",
          "type": "uint256"
        }
      ],
      "name": "modifyLock",
      "outputs": [],
      "stateMutability": "nonpayable",
      "type": "function"
    },
    {
      "inputs": [],
      "name": "owner",
      "outputs": [
        {
          "internalType": "address",
          "name": "",
          "type": "address"
        }
      ],
      "stateMutability": "view",
      "type": "function"
    },
    {
      "inputs": [
        {
          "internalType": "address",
          "name": "",
          "type": "address"
        },
        {
          "internalType": "uint256",
          "name": "",
          "type": "uint256"
        }
      ],
      "name": "positionIdsByAddress",
      "outputs": [
        {
          "internalType": "uint256",
          "name": "",
          "type": "uint256"
        }
      ],
      "stateMutability": "view",
      "type": "function"
    },
    {
      "inputs": [
        {
          "internalType": "uint256",
          "name": "",
          "type": "uint256"
        }
      ],
      "name": "positions",
      "outputs": [
        {
          "internalType": "uint256",
          "name": "PositionId",
          "type": "uint256"
        },
        {
          "internalType": "address",
          "name": "walletAddress",
          "type": "address"
        },
        {
          "internalType": "uint256",
          "name": "createdDate",
          "type": "uint256"
        },
        {
          "internalType": "uint256",
          "name": "unlockDate",
          "type": "uint256"
        },
        {
          "internalType": "uint256",
          "name": "percentIntrest",
          "type": "uint256"
        },
        {
          "internalType": "uint256",
          "name": "weiStaked",
          "type": "uint256"
        },
        {
          "internalType": "uint256",
          "name": "weiInterest",
          "type": "uint256"
        },
        {
          "internalType": "bool",
          "name": "open",
          "type": "bool"
        }
      ],
      "stateMutability": "view",
      "type": "function"
    },
    {
      "inputs": [
        {
          "internalType": "uint256",
          "name": "numDays",
          "type": "uint256"
        }
      ],
      "name": "stakeEther",
      "outputs": [],
      "stateMutability": "payable",
      "type": "function"
    },
    {
      "inputs": [
        {
          "internalType": "uint256",
          "name": "",
          "type": "uint256"
        }
      ],
      "name": "tiers",
      "outputs": [
        {
          "internalType": "uint256",
          "name": "",
          "type": "uint256"
        }
      ],
      "stateMutability": "view",
      "type": "function"
    }
  ],
  "bytecode": "0x6080604052336000806101000a81548173ffffffffffffffffffffffffffffffffffffffff021916908373ffffffffffffffffffffffffffffffffffffffff16021790555060006009819055506102bc600c6000601e8152602001908152602001600020819055506103e8600c6000605a8152602001908152602001600020819055506104b0600c60006078815260200190815260200160002081905550600d601e9080600181540180825580915050600190039060005260206000200160009091909190915055600d605a9080600181540180825580915050600190039060005260206000200160009091909190915055600d6078908060018154018082558091505060019003906000526020600020016000909190919091505561171c8061012a6000396000f3fe6080604052600436106100dd5760003560e01c80638da5cb5b1161007f578063b838ec8611610059578063b838ec8614610316578063bda7053a14610353578063c7c9d0551461037c578063e4f90841146103a5576100dd565b80638da5cb5b1461026957806399fbab8814610294578063a126d601146102d8576100dd565b806340d98a44116100bb57806340d98a441461018757806341ee13be146101c457806345eae373146101ef5780634c8f2a781461022c576100dd565b8063039af9eb146100e25780630c196a741461011f5780631131c8cd1461015c575b600080fd5b3480156100ee57600080fd5b5061010960048036038101906101049190610ea6565b6103c1565b604051610116919061139a565b60405180910390f35b34801561012b57600080fd5b5061014660048036038101906101419190610ea6565b6103d9565b604051610153919061139a565b60405180910390f35b34801561016857600080fd5b506101716103f6565b60405161017e919061139a565b60405180910390f35b34801561019357600080fd5b506101ae60048036038101906101a99190610e41565b6103fc565b6040516101bb919061128c565b60405180910390f35b3480156101d057600080fd5b506101d9610493565b6040516101e6919061128c565b60405180910390f35b3480156101fb57600080fd5b5061021660048036038101906102119190610e6a565b6104eb565b604051610223919061139a565b60405180910390f35b34801561023857600080fd5b50610253600480360381019061024e9190610ea6565b61051c565b604051610260919061139a565b60405180910390f35b34801561027557600080fd5b5061027e610540565b60405161028b9190611271565b60405180910390f35b3480156102a057600080fd5b506102bb60048036038101906102b69190610ea6565b610564565b6040516102cf9897969594939291906113b5565b60405180910390f35b3480156102e457600080fd5b506102ff60048036038101906102fa9190610ea6565b6105d9565b60405161030d9291906112ae565b60405180910390f35b34801561032257600080fd5b5061033d60048036038101906103389190610ea6565b610888565b60405161034a919061137e565b60405180910390f35b34801561035f57600080fd5b5061037a60048036038101906103759190610ecf565b610963565b005b34801561038857600080fd5b506103a3600480360381019061039e9190610ecf565b610ab7565b005b6103bf60048036038101906103ba9190610ea6565b610b64565b005b600c6020528060005260406000206000915090505481565b6000600c6000838152602001908152602001600020549050919050565b60095481565b6060600b60008373ffffffffffffffffffffffffffffffffffffffff1673ffffffffffffffffffffffffffffffffffffffff16815260200190815260200160002080548060200260200160405190810160405280929190818152602001828054801561048757602002820191906000526020600020905b815481526020019060010190808311610473575b50505050509050919050565b6060600d8054806020026020016040519081016040528092919081815260200182805480156104e157602002820191906000526020600020905b8154815260200190600101908083116104cd575b5050505050905090565b600b602052816000526040600020818154811061050757600080fd5b90600052602060002001600091509150505481565b600d818154811061052c57600080fd5b906000526020600020016000915090505481565b60008054906101000a900473ffffffffffffffffffffffffffffffffffffffff1681565b600a6020528060005260406000206000915090508060000154908060010160009054906101000a900473ffffffffffffffffffffffffffffffffffffffff16908060020154908060030154908060040154908060050154908060060154908060070160009054906101000a900460ff16905088565b600060603373ffffffffffffffffffffffffffffffffffffffff16600a600085815260200190815260200160002060010160009054906101000a900473ffffffffffffffffffffffffffffffffffffffff1673ffffffffffffffffffffffffffffffffffffffff1614610681576040517f08c379a0000000000000000000000000000000000000000000000000000000008152600401610678906112fe565b60405180910390fd5b60011515600a600085815260200190815260200160002060070160009054906101000a900460ff161515146106eb576040517f08c379a00000000000000000000000000000000000000000000000000000000081526004016106e29061133e565b60405180910390fd5b6000600a600085815260200190815260200160002060070160006101000a81548160ff021916908315150217905550600a6000848152602001908152602001600020600301544211156107f0576000600a600085815260200190815260200160002060060154600a60008681526020019081526020016000206005015461077291906114a4565b90506000803373ffffffffffffffffffffffffffffffffffffffff168360405161079b9061125c565b60006040518083038185875af1925050503d80600081146107d8576040519150601f19603f3d011682016040523d82523d6000602084013e6107dd565b606091505b5091509150818194509450505050610883565b6000600a60008581526020019081526020016000206005015490506000803373ffffffffffffffffffffffffffffffffffffffff16836040516108329061125c565b60006040518083038185875af1925050503d806000811461086f576040519150601f19603f3d011682016040523d82523d6000602084013e610874565b606091505b50915091508181945094505050505b915091565b610890610dba565b600a600083815260200190815260200160002060405180610100016040529081600082015481526020016001820160009054906101000a900473ffffffffffffffffffffffffffffffffffffffff1673ffffffffffffffffffffffffffffffffffffffff1673ffffffffffffffffffffffffffffffffffffffff16815260200160028201548152602001600382015481526020016004820154815260200160058201548152602001600682015481526020016007820160009054906101000a900460ff1615151515815250509050919050565b3373ffffffffffffffffffffffffffffffffffffffff1660008054906101000a900473ffffffffffffffffffffffffffffffffffffffff1673ffffffffffffffffffffffffffffffffffffffff16146109f1576040517f08c379a00000000000000000000000000000000000000000000000000000000081526004016109e89061131e565b60405180910390fd5b80600c6000848152602001908152602001600020819055506000805b600d80549050811015610a825783600d8281548110610a55577f4e487b7100000000000000000000000000000000000000000000000000000000600052603260045260246000fd5b90600052602060002001541415610a6f5760019150610a82565b8080610a7a90611600565b915050610a0d565b5080610ab257600d8390806001815401808255809150506001900390600052602060002001600090919091909150555b505050565b3373ffffffffffffffffffffffffffffffffffffffff1660008054906101000a900473ffffffffffffffffffffffffffffffffffffffff1673ffffffffffffffffffffffffffffffffffffffff1614610b45576040517f08c379a0000000000000000000000000000000000000000000000000000000008152600401610b3c906112de565b60405180910390fd5b80600a6000848152602001908152602001600020600301819055505050565b6000600c60008381526020019081526020016000205411610bba576040517f08c379a0000000000000000000000000000000000000000000000000000000008152600401610bb19061135e565b60405180910390fd5b60405180610100016040528060095481526020013373ffffffffffffffffffffffffffffffffffffffff1681526020014281526020016201518083610bff919061152b565b42610c0a91906114a4565b8152602001600c6000848152602001908152602001600020548152602001348152602001610c4b600c60008581526020019081526020016000205434610d97565b815260200160011515815250600a600060095481526020019081526020016000206000820151816000015560208201518160010160006101000a81548173ffffffffffffffffffffffffffffffffffffffff021916908373ffffffffffffffffffffffffffffffffffffffff16021790555060408201518160020155606082015181600301556080820151816004015560a0820151816005015560c0820151816006015560e08201518160070160006101000a81548160ff021916908315150217905550905050600b60003373ffffffffffffffffffffffffffffffffffffffff1673ffffffffffffffffffffffffffffffffffffffff1681526020019081526020016000206009549080600181540180825580915050600190039060005260206000200160009091909190915055600160096000828254610d8d91906114a4565b9250508190555050565b60006127108284610da8919061152b565b610db291906114fa565b905092915050565b60405180610100016040528060008152602001600073ffffffffffffffffffffffffffffffffffffffff16815260200160008152602001600081526020016000815260200160008152602001600081526020016000151581525090565b600081359050610e26816116b8565b92915050565b600081359050610e3b816116cf565b92915050565b600060208284031215610e5357600080fd5b6000610e6184828501610e17565b91505092915050565b60008060408385031215610e7d57600080fd5b6000610e8b85828601610e17565b9250506020610e9c85828601610e2c565b9150509250929050565b600060208284031215610eb857600080fd5b6000610ec684828501610e2c565b91505092915050565b60008060408385031215610ee257600080fd5b6000610ef085828601610e2c565b9250506020610f0185828601610e2c565b9150509250929050565b6000610f17838361123e565b60208301905092915050565b610f2c81611585565b82525050565b610f3b81611585565b82525050565b6000610f4c82611443565b610f568185611466565b9350610f6183611433565b8060005b83811015610f92578151610f798882610f0b565b9750610f8483611459565b925050600181019050610f65565b5085935050505092915050565b610fa881611597565b82525050565b610fb781611597565b82525050565b6000610fc88261144e565b610fd28185611477565b9350610fe28185602086016115cd565b610feb816116a7565b840191505092915050565b6000611003602183611493565b91507f6f6e6c79206f776e65722063616e2063616c6c20746869732066756e6374696f60008301527f6e000000000000000000000000000000000000000000000000000000000000006020830152604082019050919050565b6000611069602883611493565b91507f6f6e6c7920706f736974696f6e20617574686f722063616e206368616e67652060008301527f706f736974696f6e0000000000000000000000000000000000000000000000006020830152604082019050919050565b60006110cf601d83611493565b91507f4f6e6c79206f776e6572206d6179206d6f64696679207374616b696e670000006000830152602082019050919050565b600061110f601283611493565b91507f706f736974696f6e20697320636c6f73656400000000000000000000000000006000830152602082019050919050565b600061114f600083611488565b9150600082019050919050565b6000611169601683611493565b91507f496e76616c6964206e756d626572206f662064617973000000000000000000006000830152602082019050919050565b610100820160008201516111b3600085018261123e565b5060208201516111c66020850182610f23565b5060408201516111d9604085018261123e565b5060608201516111ec606085018261123e565b5060808201516111ff608085018261123e565b5060a082015161121260a085018261123e565b5060c082015161122560c085018261123e565b5060e082015161123860e0850182610f9f565b50505050565b611247816115c3565b82525050565b611256816115c3565b82525050565b600061126782611142565b9150819050919050565b60006020820190506112866000830184610f32565b92915050565b600060208201905081810360008301526112a68184610f41565b905092915050565b60006040820190506112c36000830185610fae565b81810360208301526112d58184610fbd565b90509392505050565b600060208201905081810360008301526112f781610ff6565b9050919050565b600060208201905081810360008301526113178161105c565b9050919050565b60006020820190508181036000830152611337816110c2565b9050919050565b6000602082019050818103600083015261135781611102565b9050919050565b600060208201905081810360008301526113778161115c565b9050919050565b600061010082019050611394600083018461119c565b92915050565b60006020820190506113af600083018461124d565b92915050565b6000610100820190506113cb600083018b61124d565b6113d8602083018a610f32565b6113e5604083018961124d565b6113f2606083018861124d565b6113ff608083018761124d565b61140c60a083018661124d565b61141960c083018561124d565b61142660e0830184610fae565b9998505050505050505050565b6000819050602082019050919050565b600081519050919050565b600081519050919050565b6000602082019050919050565b600082825260208201905092915050565b600082825260208201905092915050565b600081905092915050565b600082825260208201905092915050565b60006114af826115c3565b91506114ba836115c3565b9250827fffffffffffffffffffffffffffffffffffffffffffffffffffffffffffffffff038211156114ef576114ee611649565b5b828201905092915050565b6000611505826115c3565b9150611510836115c3565b9250826115205761151f611678565b5b828204905092915050565b6000611536826115c3565b9150611541836115c3565b9250817fffffffffffffffffffffffffffffffffffffffffffffffffffffffffffffffff048311821515161561157a57611579611649565b5b828202905092915050565b6000611590826115a3565b9050919050565b60008115159050919050565b600073ffffffffffffffffffffffffffffffffffffffff82169050919050565b6000819050919050565b60005b838110156115eb5780820151818401526020810190506115d0565b838111156115fa576000848401525b50505050565b600061160b826115c3565b91507fffffffffffffffffffffffffffffffffffffffffffffffffffffffffffffffff82141561163e5761163d611649565b5b600182019050919050565b7f4e487b7100000000000000000000000000000000000000000000000000000000600052601160045260246000fd5b7f4e487b7100000000000000000000000000000000000000000000000000000000600052601260045260246000fd5b6000601f19601f8301169050919050565b6116c181611585565b81146116cc57600080fd5b50565b6116d8816115c3565b81146116e357600080fd5b5056fea264697066735822122072145ff758e9afbba383f42eb1b3e3f3a79ce33c88266cfc048551e2eb9a91f864736f6c63430008000033",
  "linkReferences": {},
  "deployedLinkReferences": {}
}