{
  "_format": "hh-sol-artifact-1",
  "contractName": "Staking",
  "sourceName": "contracts/Staking.sol",
  "abi": [
    {
      "inputs": [],
      "stateMutability": "payable",
      "type": "constructor"
    },
    {
      "inputs": [
        {
          "internalType": "uint256",
          "name": "positionId",
          "type": "uint256"
        },
        {
          "internalType": "uint256",
          "name": "newUnlockDate",
          "type": "uint256"
        }
      ],
      "name": "changeUnlockDate",
      "outputs": [],
      "stateMutability": "view",
      "type": "function"
    },
    {
      "inputs": [
        {
          "internalType": "uint256",
          "name": "positionId",
          "type": "uint256"
        }
      ],
      "name": "closePosition",
      "outputs": [
        {
          "internalType": "bool",
          "name": "",
          "type": "bool"
        },
        {
          "internalType": "bytes",
          "name": "",
          "type": "bytes"
        }
      ],
      "stateMutability": "nonpayable",
      "type": "function"
    },
    {
      "inputs": [],
      "name": "currentPositionId",
      "outputs": [
        {
          "internalType": "uint256",
          "name": "",
          "type": "uint256"
        }
      ],
      "stateMutability": "view",
      "type": "function"
    },
    {
      "inputs": [
        {
          "internalType": "uint256",
          "name": "numDays",
          "type": "uint256"
        }
      ],
      "name": "getInterestRate",
      "outputs": [
        {
          "internalType": "uint256",
          "name": "",
          "type": "uint256"
        }
      ],
      "stateMutability": "view",
      "type": "function"
    },
    {
      "inputs": [],
      "name": "getLockPeriods",
      "outputs": [
        {
          "internalType": "uint256[]",
          "name": "",
          "type": "uint256[]"
        }
      ],
      "stateMutability": "view",
      "type": "function"
    },
    {
      "inputs": [
        {
          "internalType": "uint256",
          "name": "positionId",
          "type": "uint256"
        }
      ],
      "name": "getPositionById",
      "outputs": [
        {
          "components": [
            {
              "internalType": "uint256",
              "name": "PositionId",
              "type": "uint256"
            },
            {
              "internalType": "address",
              "name": "walletAddress",
              "type": "address"
            },
            {
              "internalType": "uint256",
              "name": "createdDate",
              "type": "uint256"
            },
            {
              "internalType": "uint256",
              "name": "unlockDate",
              "type": "uint256"
            },
            {
              "internalType": "uint256",
              "name": "percentIntrest",
              "type": "uint256"
            },
            {
              "internalType": "uint256",
              "name": "weiStaked",
              "type": "uint256"
            },
            {
              "internalType": "uint256",
              "name": "weiInterest",
              "type": "uint256"
            },
            {
              "internalType": "bool",
              "name": "open",
              "type": "bool"
            }
          ],
          "internalType": "struct Staking.Position",
          "name": "",
          "type": "tuple"
        }
      ],
      "stateMutability": "view",
      "type": "function"
    },
    {
      "inputs": [
        {
          "internalType": "address",
          "name": "walletAddress",
          "type": "address"
        }
      ],
      "name": "getPositionIdsForAddress",
      "outputs": [
        {
          "internalType": "uint256[]",
          "name": "",
          "type": "uint256[]"
        }
      ],
      "stateMutability": "view",
      "type": "function"
    },
    {
      "inputs": [
        {
          "internalType": "uint256",
          "name": "",
          "type": "uint256"
        }
      ],
      "name": "lockPeriods",
      "outputs": [
        {
          "internalType": "uint256",
          "name": "",
          "type": "uint256"
        }
      ],
      "stateMutability": "view",
      "type": "function"
    },
    {
      "inputs": [
        {
          "internalType": "uint256",
          "name": "numDays",
          "type": "uint256"
        },
        {
          "internalType": "uint256",
          "name": "basisPoints",
          "type": "uint256"
        }
      ],
      "name": "modifyLock",
      "outputs": [],
      "stateMutability": "nonpayable",
      "type": "function"
    },
    {
      "inputs": [],
      "name": "owner",
      "outputs": [
        {
          "internalType": "address",
          "name": "",
          "type": "address"
        }
      ],
      "stateMutability": "view",
      "type": "function"
    },
    {
      "inputs": [
        {
          "internalType": "address",
          "name": "",
          "type": "address"
        },
        {
          "internalType": "uint256",
          "name": "",
          "type": "uint256"
        }
      ],
      "name": "positionIdsByAddress",
      "outputs": [
        {
          "internalType": "uint256",
          "name": "",
          "type": "uint256"
        }
      ],
      "stateMutability": "view",
      "type": "function"
    },
    {
      "inputs": [
        {
          "internalType": "uint256",
          "name": "",
          "type": "uint256"
        }
      ],
      "name": "positions",
      "outputs": [
        {
          "internalType": "uint256",
          "name": "PositionId",
          "type": "uint256"
        },
        {
          "internalType": "address",
          "name": "walletAddress",
          "type": "address"
        },
        {
          "internalType": "uint256",
          "name": "createdDate",
          "type": "uint256"
        },
        {
          "internalType": "uint256",
          "name": "unlockDate",
          "type": "uint256"
        },
        {
          "internalType": "uint256",
          "name": "percentIntrest",
          "type": "uint256"
        },
        {
          "internalType": "uint256",
          "name": "weiStaked",
          "type": "uint256"
        },
        {
          "internalType": "uint256",
          "name": "weiInterest",
          "type": "uint256"
        },
        {
          "internalType": "bool",
          "name": "open",
          "type": "bool"
        }
      ],
      "stateMutability": "view",
      "type": "function"
    },
    {
      "inputs": [
        {
          "internalType": "uint256",
          "name": "numDays",
          "type": "uint256"
        }
      ],
      "name": "stakeEther",
      "outputs": [],
      "stateMutability": "payable",
      "type": "function"
    },
    {
      "inputs": [
        {
          "internalType": "uint256",
          "name": "",
          "type": "uint256"
        }
      ],
      "name": "tiers",
      "outputs": [
        {
          "internalType": "uint256",
          "name": "",
          "type": "uint256"
        }
      ],
      "stateMutability": "view",
      "type": "function"
    }
  ],
  "bytecode": "0x6080604052336000806101000a81548173ffffffffffffffffffffffffffffffffffffffff021916908373ffffffffffffffffffffffffffffffffffffffff16021790555060006009819055506102bc600c6000601e8152602001908152602001600020819055506103e8600c6000605a8152602001908152602001600020819055506104b0600c60006078815260200190815260200160002081905550600d601e9080600181540180825580915050600190039060005260206000200160009091909190915055600d605a9080600181540180825580915050600190039060005260206000200160009091909190915055600d60b4908060018154018082558091505060019003906000526020600020016000909190919091505561164d8061012a6000396000f3fe6080604052600436106100dd5760003560e01c80638da5cb5b1161007f578063b838ec8611610059578063b838ec8614610316578063bda7053a14610353578063c7c9d0551461037c578063e4f90841146103a5576100dd565b80638da5cb5b1461026957806399fbab8814610294578063a126d601146102d8576100dd565b806340d98a44116100bb57806340d98a441461018757806341ee13be146101c457806345eae373146101ef5780634c8f2a781461022c576100dd565b8063039af9eb146100e25780630c196a741461011f5780631131c8cd1461015c575b600080fd5b3480156100ee57600080fd5b5061010960048036038101906101049190610e20565b6103c1565b6040516101169190611314565b60405180910390f35b34801561012b57600080fd5b5061014660048036038101906101419190610e20565b6103d9565b6040516101539190611314565b60405180910390f35b34801561016857600080fd5b506101716103f6565b60405161017e9190611314565b60405180910390f35b34801561019357600080fd5b506101ae60048036038101906101a99190610dbb565b6103fc565b6040516101bb9190611206565b60405180910390f35b3480156101d057600080fd5b506101d9610493565b6040516101e69190611206565b60405180910390f35b3480156101fb57600080fd5b5061021660048036038101906102119190610de4565b6104eb565b6040516102239190611314565b60405180910390f35b34801561023857600080fd5b50610253600480360381019061024e9190610e20565b61051c565b6040516102609190611314565b60405180910390f35b34801561027557600080fd5b5061027e610540565b60405161028b91906111eb565b60405180910390f35b3480156102a057600080fd5b506102bb60048036038101906102b69190610e20565b610564565b6040516102cf98979695949392919061132f565b60405180910390f35b3480156102e457600080fd5b506102ff60048036038101906102fa9190610e20565b6105d9565b60405161030d929190611228565b60405180910390f35b34801561032257600080fd5b5061033d60048036038101906103389190610e20565b610888565b60405161034a91906112f8565b60405180910390f35b34801561035f57600080fd5b5061037a60048036038101906103759190610e49565b610963565b005b34801561038857600080fd5b506103a3600480360381019061039e9190610e49565b610a36565b005b6103bf60048036038101906103ba9190610e20565b610ade565b005b600c6020528060005260406000206000915090505481565b6000600c6000838152602001908152602001600020549050919050565b60095481565b6060600b60008373ffffffffffffffffffffffffffffffffffffffff1673ffffffffffffffffffffffffffffffffffffffff16815260200190815260200160002080548060200260200160405190810160405280929190818152602001828054801561048757602002820191906000526020600020905b815481526020019060010190808311610473575b50505050509050919050565b6060600d8054806020026020016040519081016040528092919081815260200182805480156104e157602002820191906000526020600020905b8154815260200190600101908083116104cd575b5050505050905090565b600b602052816000526040600020818154811061050757600080fd5b90600052602060002001600091509150505481565b600d818154811061052c57600080fd5b906000526020600020016000915090505481565b60008054906101000a900473ffffffffffffffffffffffffffffffffffffffff1681565b600a6020528060005260406000206000915090508060000154908060010160009054906101000a900473ffffffffffffffffffffffffffffffffffffffff16908060020154908060030154908060040154908060050154908060060154908060070160009054906101000a900460ff16905088565b600060603373ffffffffffffffffffffffffffffffffffffffff16600a600085815260200190815260200160002060010160009054906101000a900473ffffffffffffffffffffffffffffffffffffffff1673ffffffffffffffffffffffffffffffffffffffff1614610681576040517f08c379a000000000000000000000000000000000000000000000000000000000815260040161067890611278565b60405180910390fd5b60011515600a600085815260200190815260200160002060070160009054906101000a900460ff161515146106eb576040517f08c379a00000000000000000000000000000000000000000000000000000000081526004016106e2906112b8565b60405180910390fd5b6000600a600085815260200190815260200160002060070160006101000a81548160ff021916908315150217905550600a6000848152602001908152602001600020600301544211156107f0576000600a600085815260200190815260200160002060060154600a600086815260200190815260200160002060050154610772919061141e565b90506000803373ffffffffffffffffffffffffffffffffffffffff168360405161079b906111d6565b60006040518083038185875af1925050503d80600081146107d8576040519150601f19603f3d011682016040523d82523d6000602084013e6107dd565b606091505b5091509150818194509450505050610883565b6000600a60008581526020019081526020016000206005015490506000803373ffffffffffffffffffffffffffffffffffffffff1683604051610832906111d6565b60006040518083038185875af1925050503d806000811461086f576040519150601f19603f3d011682016040523d82523d6000602084013e610874565b606091505b50915091508181945094505050505b915091565b610890610d34565b600a600083815260200190815260200160002060405180610100016040529081600082015481526020016001820160009054906101000a900473ffffffffffffffffffffffffffffffffffffffff1673ffffffffffffffffffffffffffffffffffffffff1673ffffffffffffffffffffffffffffffffffffffff16815260200160028201548152602001600382015481526020016004820154815260200160058201548152602001600682015481526020016007820160009054906101000a900460ff1615151515815250509050919050565b3373ffffffffffffffffffffffffffffffffffffffff1660008054906101000a900473ffffffffffffffffffffffffffffffffffffffff1673ffffffffffffffffffffffffffffffffffffffff16146109f1576040517f08c379a00000000000000000000000000000000000000000000000000000000081526004016109e890611298565b60405180910390fd5b80600c600084815260200190815260200160002081905550600d8290806001815401808255809150506001900390600052602060002001600090919091909150555050565b3373ffffffffffffffffffffffffffffffffffffffff1660008054906101000a900473ffffffffffffffffffffffffffffffffffffffff1673ffffffffffffffffffffffffffffffffffffffff1614610ac4576040517f08c379a0000000000000000000000000000000000000000000000000000000008152600401610abb90611258565b60405180910390fd5b80600a600084815260200190815260200160002050505050565b6000600c60008381526020019081526020016000205411610b34576040517f08c379a0000000000000000000000000000000000000000000000000000000008152600401610b2b906112d8565b60405180910390fd5b60405180610100016040528060095481526020013373ffffffffffffffffffffffffffffffffffffffff1681526020014281526020016201518083610b7991906114a5565b42610b84919061141e565b8152602001600c6000848152602001908152602001600020548152602001348152602001610bc5600c60008581526020019081526020016000205434610d11565b815260200160011515815250600a600060095481526020019081526020016000206000820151816000015560208201518160010160006101000a81548173ffffffffffffffffffffffffffffffffffffffff021916908373ffffffffffffffffffffffffffffffffffffffff16021790555060408201518160020155606082015181600301556080820151816004015560a0820151816005015560c0820151816006015560e08201518160070160006101000a81548160ff021916908315150217905550905050600b60003373ffffffffffffffffffffffffffffffffffffffff1673ffffffffffffffffffffffffffffffffffffffff1681526020019081526020016000206009549080600181540180825580915050600190039060005260206000200160009091909190915055600160096000828254610d07919061141e565b9250508190555050565b60006127108284610d2291906114a5565b610d2c9190611474565b905092915050565b60405180610100016040528060008152602001600073ffffffffffffffffffffffffffffffffffffffff16815260200160008152602001600081526020016000815260200160008152602001600081526020016000151581525090565b600081359050610da0816115e9565b92915050565b600081359050610db581611600565b92915050565b600060208284031215610dcd57600080fd5b6000610ddb84828501610d91565b91505092915050565b60008060408385031215610df757600080fd5b6000610e0585828601610d91565b9250506020610e1685828601610da6565b9150509250929050565b600060208284031215610e3257600080fd5b6000610e4084828501610da6565b91505092915050565b60008060408385031215610e5c57600080fd5b6000610e6a85828601610da6565b9250506020610e7b85828601610da6565b9150509250929050565b6000610e9183836111b8565b60208301905092915050565b610ea6816114ff565b82525050565b610eb5816114ff565b82525050565b6000610ec6826113bd565b610ed081856113e0565b9350610edb836113ad565b8060005b83811015610f0c578151610ef38882610e85565b9750610efe836113d3565b925050600181019050610edf565b5085935050505092915050565b610f2281611511565b82525050565b610f3181611511565b82525050565b6000610f42826113c8565b610f4c81856113f1565b9350610f5c818560208601611547565b610f65816115d8565b840191505092915050565b6000610f7d60218361140d565b91507f6f6e6c79206f776e65722063616e2063616c6c20746869732066756e6374696f60008301527f6e000000000000000000000000000000000000000000000000000000000000006020830152604082019050919050565b6000610fe360288361140d565b91507f6f6e6c7920706f736974696f6e20617574686f722063616e206368616e67652060008301527f706f736974696f6e0000000000000000000000000000000000000000000000006020830152604082019050919050565b6000611049601d8361140d565b91507f4f6e6c79206f776e6572206d6179206d6f64696679207374616b696e670000006000830152602082019050919050565b600061108960128361140d565b91507f706f736974696f6e20697320636c6f73656400000000000000000000000000006000830152602082019050919050565b60006110c9600083611402565b9150600082019050919050565b60006110e360168361140d565b91507f496e76616c6964206e756d626572206f662064617973000000000000000000006000830152602082019050919050565b6101008201600082015161112d60008501826111b8565b5060208201516111406020850182610e9d565b50604082015161115360408501826111b8565b50606082015161116660608501826111b8565b50608082015161117960808501826111b8565b5060a082015161118c60a08501826111b8565b5060c082015161119f60c08501826111b8565b5060e08201516111b260e0850182610f19565b50505050565b6111c18161153d565b82525050565b6111d08161153d565b82525050565b60006111e1826110bc565b9150819050919050565b60006020820190506112006000830184610eac565b92915050565b600060208201905081810360008301526112208184610ebb565b905092915050565b600060408201905061123d6000830185610f28565b818103602083015261124f8184610f37565b90509392505050565b6000602082019050818103600083015261127181610f70565b9050919050565b6000602082019050818103600083015261129181610fd6565b9050919050565b600060208201905081810360008301526112b18161103c565b9050919050565b600060208201905081810360008301526112d18161107c565b9050919050565b600060208201905081810360008301526112f1816110d6565b9050919050565b60006101008201905061130e6000830184611116565b92915050565b600060208201905061132960008301846111c7565b92915050565b600061010082019050611345600083018b6111c7565b611352602083018a610eac565b61135f60408301896111c7565b61136c60608301886111c7565b61137960808301876111c7565b61138660a08301866111c7565b61139360c08301856111c7565b6113a060e0830184610f28565b9998505050505050505050565b6000819050602082019050919050565b600081519050919050565b600081519050919050565b6000602082019050919050565b600082825260208201905092915050565b600082825260208201905092915050565b600081905092915050565b600082825260208201905092915050565b60006114298261153d565b91506114348361153d565b9250827fffffffffffffffffffffffffffffffffffffffffffffffffffffffffffffffff038211156114695761146861157a565b5b828201905092915050565b600061147f8261153d565b915061148a8361153d565b92508261149a576114996115a9565b5b828204905092915050565b60006114b08261153d565b91506114bb8361153d565b9250817fffffffffffffffffffffffffffffffffffffffffffffffffffffffffffffffff04831182151516156114f4576114f361157a565b5b828202905092915050565b600061150a8261151d565b9050919050565b60008115159050919050565b600073ffffffffffffffffffffffffffffffffffffffff82169050919050565b6000819050919050565b60005b8381101561156557808201518184015260208101905061154a565b83811115611574576000848401525b50505050565b7f4e487b7100000000000000000000000000000000000000000000000000000000600052601160045260246000fd5b7f4e487b7100000000000000000000000000000000000000000000000000000000600052601260045260246000fd5b6000601f19601f8301169050919050565b6115f2816114ff565b81146115fd57600080fd5b50565b6116098161153d565b811461161457600080fd5b5056fea26469706673582212203bb170a141027668351b6d15efe1219b1223f5745c8e9eeca532ab0e7ac3ca2f64736f6c63430008000033",
  "linkReferences": {},
  "deployedLinkReferences": {}
}